{
  "contractName": "PUBG",
  "abi": [
    {
      "constant": true,
      "inputs": [],
      "name": "owner",
      "outputs": [
        {
          "name": "",
          "type": "address"
        }
      ],
      "payable": false,
      "stateMutability": "view",
      "type": "function"
    },
    {
      "constant": false,
      "inputs": [
        {
          "name": "newOwner",
          "type": "address"
        }
      ],
      "name": "transferOwnership",
      "outputs": [],
      "payable": false,
      "stateMutability": "nonpayable",
      "type": "function"
    },
    {
      "inputs": [
        {
          "name": "_entry_fee",
          "type": "uint256"
        }
      ],
      "payable": true,
      "stateMutability": "payable",
      "type": "constructor"
    },
    {
      "constant": false,
      "inputs": [
        {
          "name": "to",
          "type": "address"
        },
        {
          "name": "amount",
          "type": "uint256"
        }
      ],
      "name": "withdraw",
      "outputs": [],
      "payable": false,
      "stateMutability": "nonpayable",
      "type": "function"
    },
    {
      "constant": false,
      "inputs": [
        {
          "name": "email1",
          "type": "string"
        },
        {
          "name": "uuid1",
          "type": "uint256"
        },
        {
          "name": "email2",
          "type": "string"
        },
        {
          "name": "uuid2",
          "type": "uint256"
        },
        {
          "name": "email3",
          "type": "string"
        },
        {
          "name": "uuid3",
          "type": "uint256"
        },
        {
          "name": "email4",
          "type": "string"
        },
        {
          "name": "uuid4",
          "type": "uint256"
        }
      ],
      "name": "createTeam",
      "outputs": [],
      "payable": true,
      "stateMutability": "payable",
      "type": "function"
    },
    {
      "constant": true,
      "inputs": [],
      "name": "getTeamddresses",
      "outputs": [
        {
          "name": "_team_addresses",
          "type": "address[]"
        }
      ],
      "payable": false,
      "stateMutability": "view",
      "type": "function"
    },
    {
      "constant": true,
      "inputs": [
        {
          "name": "team_address",
          "type": "address"
        }
      ],
      "name": "getTeamEmails",
      "outputs": [
        {
          "name": "email1",
          "type": "string"
        },
        {
          "name": "email2",
          "type": "string"
        },
        {
          "name": "email3",
          "type": "string"
        },
        {
          "name": "email4",
          "type": "string"
        }
      ],
      "payable": false,
      "stateMutability": "view",
      "type": "function"
    },
    {
      "constant": true,
      "inputs": [
        {
          "name": "team_address",
          "type": "address"
        }
      ],
      "name": "getTeamUUIDs",
      "outputs": [
        {
          "name": "uuid1",
          "type": "uint256"
        },
        {
          "name": "uuid2",
          "type": "uint256"
        },
        {
          "name": "uuid3",
          "type": "uint256"
        },
        {
          "name": "uuid4",
          "type": "uint256"
        }
      ],
      "payable": false,
      "stateMutability": "view",
      "type": "function"
    },
    {
      "constant": true,
      "inputs": [],
      "name": "getEntryFee",
      "outputs": [
        {
          "name": "_entry_fee",
          "type": "uint256"
        }
      ],
      "payable": false,
      "stateMutability": "view",
      "type": "function"
    },
    {
      "constant": false,
      "inputs": [
        {
          "name": "_winner_address",
          "type": "address"
        }
      ],
      "name": "setWinnerTeam",
      "outputs": [],
      "payable": false,
      "stateMutability": "nonpayable",
      "type": "function"
    },
    {
      "constant": true,
      "inputs": [],
      "name": "getWinnerAddress",
      "outputs": [
        {
          "name": "_winner_address",
          "type": "address"
        }
      ],
      "payable": false,
      "stateMutability": "view",
      "type": "function"
    },
    {
      "constant": false,
      "inputs": [
        {
          "name": "_winner_proof",
          "type": "string"
        }
      ],
      "name": "setWinnerProof",
      "outputs": [],
      "payable": false,
      "stateMutability": "nonpayable",
      "type": "function"
    },
    {
      "constant": true,
      "inputs": [],
      "name": "getWinnerProof",
      "outputs": [
        {
          "name": "_winner_proof",
          "type": "string"
        }
      ],
      "payable": false,
      "stateMutability": "view",
      "type": "function"
    },
    {
      "constant": true,
      "inputs": [],
      "name": "getTotalTeams",
      "outputs": [
        {
          "name": "_total_teams",
          "type": "uint256"
        }
      ],
      "payable": false,
      "stateMutability": "view",
      "type": "function"
    },
    {
      "constant": true,
      "inputs": [],
      "name": "getBalance",
      "outputs": [
        {
          "name": "balance",
          "type": "uint256"
        }
      ],
      "payable": false,
      "stateMutability": "view",
      "type": "function"
    }
  ],
  "bytecode": "0x60806040526000600455600060055560405160208061163683398101806040528101908080519060200190929190505050336000806101000a81548173ffffffffffffffffffffffffffffffffffffffff021916908373ffffffffffffffffffffffffffffffffffffffff16021790555080600581905550506115af806100876000396000f3006080604052600436106100cf576000357c0100000000000000000000000000000000000000000000000000000000900463ffffffff168062e6a91d146100d45780630ae9674d1461022a57806310a37c261461026d57806312065fe0146102c45780636c05a4ad146102ef5780638c20cad01461035b5780638da5cb5b1461038657806392c9f590146103dd578063c6c1d491146105dd578063c70546861461066d578063d562d37b146106d9578063e586a4f014610742578063f2fde38b1461076d578063f3fef3a3146107b0575b600080fd5b610228600480360381019080803590602001908201803590602001908080601f016020809104026020016040519081016040528093929190818152602001838380828437820191505050505050919291929080359060200190929190803590602001908201803590602001908080601f016020809104026020016040519081016040528093929190818152602001838380828437820191505050505050919291929080359060200190929190803590602001908201803590602001908080601f016020809104026020016040519081016040528093929190818152602001838380828437820191505050505050919291929080359060200190929190803590602001908201803590602001908080601f0160208091040260200160405190810160405280939291908181526020018383808284378201915050505050509192919290803590602001909291905050506107fd565b005b34801561023657600080fd5b5061026b600480360381019080803573ffffffffffffffffffffffffffffffffffffffff169060200190929190505050610ba6565b005b34801561027957600080fd5b50610282610c45565b604051808273ffffffffffffffffffffffffffffffffffffffff1673ffffffffffffffffffffffffffffffffffffffff16815260200191505060405180910390f35b3480156102d057600080fd5b506102d9610c6f565b6040518082815260200191505060405180910390f35b3480156102fb57600080fd5b50610304610c8e565b6040518080602001828103825283818151815260200191508051906020019060200280838360005b8381101561034757808201518184015260208101905061032c565b505050509050019250505060405180910390f35b34801561036757600080fd5b50610370610d1c565b6040518082815260200191505060405180910390f35b34801561039257600080fd5b5061039b610d26565b604051808273ffffffffffffffffffffffffffffffffffffffff1673ffffffffffffffffffffffffffffffffffffffff16815260200191505060405180910390f35b3480156103e957600080fd5b5061041e600480360381019080803573ffffffffffffffffffffffffffffffffffffffff169060200190929190505050610d4b565b6040518080602001806020018060200180602001858103855289818151815260200191508051906020019080838360005b8381101561046a57808201518184015260208101905061044f565b50505050905090810190601f1680156104975780820380516001836020036101000a031916815260200191505b50858103845288818151815260200191508051906020019080838360005b838110156104d05780820151818401526020810190506104b5565b50505050905090810190601f1680156104fd5780820380516001836020036101000a031916815260200191505b50858103835287818151815260200191508051906020019080838360005b8381101561053657808201518184015260208101905061051b565b50505050905090810190601f1680156105635780820380516001836020036101000a031916815260200191505b50858103825286818151815260200191508051906020019080838360005b8381101561059c578082015181840152602081019050610581565b50505050905090810190601f1680156105c95780820380516001836020036101000a031916815260200191505b509850505050505050505060405180910390f35b3480156105e957600080fd5b506105f26110d8565b6040518080602001828103825283818151815260200191508051906020019080838360005b83811015610632578082015181840152602081019050610617565b50505050905090810190601f16801561065f5780820380516001836020036101000a031916815260200191505b509250505060405180910390f35b34801561067957600080fd5b506106ae600480360381019080803573ffffffffffffffffffffffffffffffffffffffff16906020019092919050505061117a565b6040518085815260200184815260200183815260200182815260200194505050505060405180910390f35b3480156106e557600080fd5b50610740600480360381019080803590602001908201803590602001908080601f016020809104026020016040519081016040528093929190818152602001838380828437820191505050505050919291929050505061129b565b005b34801561074e57600080fd5b50610757611310565b6040518082815260200191505060405180910390f35b34801561077957600080fd5b506107ae600480360381019080803573ffffffffffffffffffffffffffffffffffffffff16906020019092919050505061131a565b005b3480156107bc57600080fd5b506107fb600480360381019080803573ffffffffffffffffffffffffffffffffffffffff169060200190929190803590602001909291905050506113b8565b005b6005543414151561089c576040517f08c379a000000000000000000000000000000000000000000000000000000000815260040180806020018281038252602c8152602001807f506c6561736520636865636b2074686520656e74727920666565206265666f7281526020017f65206465706f736974696e67000000000000000000000000000000000000000081525060400191505060405180910390fd5b60001515600660003373ffffffffffffffffffffffffffffffffffffffff1673ffffffffffffffffffffffffffffffffffffffff16815260200190815260200160002060080160009054906101000a900460ff161515141515610967576040517f08c379a00000000000000000000000000000000000000000000000000000000081526004018080602001828103825260168152602001807f5465616d2063616e6e6f74206a6f696e2074776963650000000000000000000081525060200191505060405180910390fd5b60196004541015156109e1576040517f08c379a000000000000000000000000000000000000000000000000000000000815260040180806020018281038252600c8152602001807f47616d652069732066756c6c000000000000000000000000000000000000000081525060200191505060405180910390fd5b60033390806001815401808255809150509060018203906000526020600020016000909192909190916101000a81548173ffffffffffffffffffffffffffffffffffffffff021916908373ffffffffffffffffffffffffffffffffffffffff160217905550506101206040519081016040528089815260200188815260200187815260200186815260200185815260200184815260200183815260200182815260200160011515815250600660003373ffffffffffffffffffffffffffffffffffffffff1673ffffffffffffffffffffffffffffffffffffffff1681526020019081526020016000206000820151816000019080519060200190610ae692919061145e565b50602082015181600101556040820151816002019080519060200190610b0d92919061145e565b50606082015181600301556080820151816004019080519060200190610b3492919061145e565b5060a0820151816005015560c0820151816006019080519060200190610b5b92919061145e565b5060e082015181600701556101008201518160080160006101000a81548160ff0219169083151502179055509050506004600081548092919060010191905055505050505050505050565b6000809054906101000a900473ffffffffffffffffffffffffffffffffffffffff1673ffffffffffffffffffffffffffffffffffffffff163373ffffffffffffffffffffffffffffffffffffffff16141515610c0157600080fd5b80600160006101000a81548173ffffffffffffffffffffffffffffffffffffffff021916908373ffffffffffffffffffffffffffffffffffffffff16021790555050565b6000600160009054906101000a900473ffffffffffffffffffffffffffffffffffffffff16905090565b60003073ffffffffffffffffffffffffffffffffffffffff1631905090565b60606003805480602002602001604051908101604052809291908181526020018280548015610d1257602002820191906000526020600020905b8160009054906101000a900473ffffffffffffffffffffffffffffffffffffffff1673ffffffffffffffffffffffffffffffffffffffff1681526020019060010190808311610cc8575b5050505050905090565b6000600454905090565b6000809054906101000a900473ffffffffffffffffffffffffffffffffffffffff1681565b606080606080600660008673ffffffffffffffffffffffffffffffffffffffff1673ffffffffffffffffffffffffffffffffffffffff168152602001908152602001600020600001600660008773ffffffffffffffffffffffffffffffffffffffff1673ffffffffffffffffffffffffffffffffffffffff168152602001908152602001600020600201600660008873ffffffffffffffffffffffffffffffffffffffff1673ffffffffffffffffffffffffffffffffffffffff168152602001908152602001600020600401600660008973ffffffffffffffffffffffffffffffffffffffff1673ffffffffffffffffffffffffffffffffffffffff168152602001908152602001600020600601838054600181600116156101000203166002900480601f016020809104026020016040519081016040528092919081815260200182805460018160011615610100020316600290048015610eee5780601f10610ec357610100808354040283529160200191610eee565b820191906000526020600020905b815481529060010190602001808311610ed157829003601f168201915b50505050509350828054600181600116156101000203166002900480601f016020809104026020016040519081016040528092919081815260200182805460018160011615610100020316600290048015610f8a5780601f10610f5f57610100808354040283529160200191610f8a565b820191906000526020600020905b815481529060010190602001808311610f6d57829003601f168201915b50505050509250818054600181600116156101000203166002900480601f0160208091040260200160405190810160405280929190818152602001828054600181600116156101000203166002900480156110265780601f10610ffb57610100808354040283529160200191611026565b820191906000526020600020905b81548152906001019060200180831161100957829003601f168201915b50505050509150808054600181600116156101000203166002900480601f0160208091040260200160405190810160405280929190818152602001828054600181600116156101000203166002900480156110c25780601f10611097576101008083540402835291602001916110c2565b820191906000526020600020905b8154815290600101906020018083116110a557829003601f168201915b5050505050905093509350935093509193509193565b606060028054600181600116156101000203166002900480601f0160208091040260200160405190810160405280929190818152602001828054600181600116156101000203166002900480156111705780601f1061114557610100808354040283529160200191611170565b820191906000526020600020905b81548152906001019060200180831161115357829003601f168201915b5050505050905090565b600080600080600660008673ffffffffffffffffffffffffffffffffffffffff1673ffffffffffffffffffffffffffffffffffffffff16815260200190815260200160002060010154600660008773ffffffffffffffffffffffffffffffffffffffff1673ffffffffffffffffffffffffffffffffffffffff16815260200190815260200160002060030154600660008873ffffffffffffffffffffffffffffffffffffffff1673ffffffffffffffffffffffffffffffffffffffff16815260200190815260200160002060050154600660008973ffffffffffffffffffffffffffffffffffffffff1673ffffffffffffffffffffffffffffffffffffffff1681526020019081526020016000206007015493509350935093509193509193565b6000809054906101000a900473ffffffffffffffffffffffffffffffffffffffff1673ffffffffffffffffffffffffffffffffffffffff163373ffffffffffffffffffffffffffffffffffffffff161415156112f657600080fd5b806002908051906020019061130c9291906114de565b5050565b6000600554905090565b6000809054906101000a900473ffffffffffffffffffffffffffffffffffffffff1673ffffffffffffffffffffffffffffffffffffffff163373ffffffffffffffffffffffffffffffffffffffff1614151561137557600080fd5b806000806101000a81548173ffffffffffffffffffffffffffffffffffffffff021916908373ffffffffffffffffffffffffffffffffffffffff16021790555050565b6000809054906101000a900473ffffffffffffffffffffffffffffffffffffffff1673ffffffffffffffffffffffffffffffffffffffff163373ffffffffffffffffffffffffffffffffffffffff1614151561141357600080fd5b8173ffffffffffffffffffffffffffffffffffffffff166108fc829081150290604051600060405180830381858888f19350505050158015611459573d6000803e3d6000fd5b505050565b828054600181600116156101000203166002900490600052602060002090601f016020900481019282601f1061149f57805160ff19168380011785556114cd565b828001600101855582156114cd579182015b828111156114cc5782518255916020019190600101906114b1565b5b5090506114da919061155e565b5090565b828054600181600116156101000203166002900490600052602060002090601f016020900481019282601f1061151f57805160ff191683800117855561154d565b8280016001018555821561154d579182015b8281111561154c578251825591602001919060010190611531565b5b50905061155a919061155e565b5090565b61158091905b8082111561157c576000816000905550600101611564565b5090565b905600a165627a7a72305820e225af20b474cc4034f7387634a47d1d0f81cadabc2bdfd84e66af1aae3f3d050029",
  "source": "pragma solidity ^0.4.24;\n\nimport \"./Owned.sol\";\n\ncontract PUBG is Owned {\n\n    address private winner_address;\n    string private winner_proof;\n\n    address[] private team_addresses;\n    uint256 private total_teams = 0;\n    uint256 private entry_fee = 0;\n    mapping(address => Team) private teams_information;\n\n    struct Team {\n        string email1;\n        uint256 uuid1;\n        string email2;\n        uint256 uuid2;\n        string email3;\n        uint256 uuid3;\n        string email4;\n        uint256 uuid4;\n        bool available;\n    }\n\n    constructor(uint256 _entry_fee) public payable {\n        entry_fee = _entry_fee;\n    }\n\n    function withdraw(address to, uint256 amount) public onlyOwner {\n        to.transfer(amount);\n    }\n\n    function createTeam(\n        string email1,\n        uint256 uuid1,\n        string email2,\n        uint256 uuid2,\n        string email3,\n        uint256 uuid3,\n        string email4,\n        uint256 uuid4\n    )\n    public payable {\n        require(msg.value == entry_fee, \"Please check the entry fee before depositing\");\n        require(teams_information[msg.sender].available == false, \"Team cannot join twice\");\n        require(total_teams < 25, \"Game is full\");\n        team_addresses.push(msg.sender);\n        teams_information[msg.sender] = Team(email1, uuid1, email2, uuid2, email3, uuid3, email4, uuid4, true);\n        total_teams++;\n    }\n\n    function getTeamddresses() public view returns (address[] _team_addresses) {\n        return team_addresses;\n    }\n\n    function getTeamEmails(address team_address) public view returns (string email1, string email2, string email3, string email4) {\n        return (\n        teams_information[team_address].email1,\n        teams_information[team_address].email2,\n        teams_information[team_address].email3,\n        teams_information[team_address].email4\n        );\n    }\n\n    function getTeamUUIDs(address team_address) public view returns (uint256 uuid1, uint256 uuid2, uint256 uuid3, uint256 uuid4) {\n        return (\n        teams_information[team_address].uuid1,\n        teams_information[team_address].uuid2,\n        teams_information[team_address].uuid3,\n        teams_information[team_address].uuid4\n        );\n    }\n\n    function getEntryFee() public view returns (uint256 _entry_fee) {\n        return entry_fee;\n    }\n\n    function setWinnerTeam(address _winner_address) public onlyOwner {\n        winner_address = _winner_address;\n    }\n\n    function getWinnerAddress() public view returns (address _winner_address) {\n        return winner_address;\n    }\n\n    function setWinnerProof(string _winner_proof) public onlyOwner {\n        winner_proof = _winner_proof;\n    }\n\n    function getWinnerProof() public view returns (string _winner_proof) {\n        return winner_proof;\n    }\n\n    function getTotalTeams() public view returns (uint256 _total_teams) {\n        return total_teams;\n    }\n\n    function getBalance() public view returns (uint256 balance){\n        return address(this).balance;\n    }\n}",
  "sourcePath": "/Users/hassanjawhar/Desktop/Workspace/pubg/contracts/PUBG.sol",
  "compiler": {
    "name": "solc",
    "version": "0.4.24+commit.e67f0147.Emscripten.clang"
  },
  "schemaVersion": "2.0.1",
  "updatedAt": "2018-09-18T16:57:23.761Z"
}